{
  "contractName": "LandRegistry",
  "abi": [
    {
      "anonymous": false,
      "inputs": [
        {
          "indexed": true,
          "internalType": "uint256",
          "name": "landId",
          "type": "uint256"
        },
        {
          "indexed": false,
          "internalType": "string",
          "name": "location",
          "type": "string"
        },
        {
          "indexed": false,
          "internalType": "uint256",
          "name": "area",
          "type": "uint256"
        },
        {
          "indexed": true,
          "internalType": "address",
          "name": "owner",
          "type": "address"
        }
      ],
      "name": "LandRegistered",
      "type": "event"
    },
    {
      "anonymous": false,
      "inputs": [
        {
          "indexed": true,
          "internalType": "uint256",
          "name": "landId",
          "type": "uint256"
        },
        {
          "indexed": true,
          "internalType": "address",
          "name": "oldOwner",
          "type": "address"
        },
        {
          "indexed": true,
          "internalType": "address",
          "name": "newOwner",
          "type": "address"
        }
      ],
      "name": "OwnershipTransferred",
      "type": "event"
    },
    {
      "inputs": [
        {
          "internalType": "uint256",
          "name": "",
          "type": "uint256"
        }
      ],
      "name": "lands",
      "outputs": [
        {
          "internalType": "uint256",
          "name": "id",
          "type": "uint256"
        },
        {
          "internalType": "string",
          "name": "location",
          "type": "string"
        },
        {
          "internalType": "uint256",
          "name": "area",
          "type": "uint256"
        },
        {
          "internalType": "address",
          "name": "owner",
          "type": "address"
        },
        {
          "internalType": "bool",
          "name": "registered",
          "type": "bool"
        }
      ],
      "stateMutability": "view",
      "type": "function",
      "constant": true
    },
    {
      "inputs": [
        {
          "internalType": "uint256",
          "name": "_id",
          "type": "uint256"
        },
        {
          "internalType": "string",
          "name": "_location",
          "type": "string"
        },
        {
          "internalType": "uint256",
          "name": "_area",
          "type": "uint256"
        }
      ],
      "name": "registerLand",
      "outputs": [],
      "stateMutability": "nonpayable",
      "type": "function"
    },
    {
      "inputs": [
        {
          "internalType": "uint256",
          "name": "_id",
          "type": "uint256"
        },
        {
          "internalType": "address",
          "name": "_newOwner",
          "type": "address"
        }
      ],
      "name": "transferOwnership",
      "outputs": [],
      "stateMutability": "nonpayable",
      "type": "function"
    },
    {
      "inputs": [
        {
          "internalType": "uint256",
          "name": "_id",
          "type": "uint256"
        }
      ],
      "name": "getLand",
      "outputs": [
        {
          "internalType": "uint256",
          "name": "",
          "type": "uint256"
        },
        {
          "internalType": "string",
          "name": "",
          "type": "string"
        },
        {
          "internalType": "uint256",
          "name": "",
          "type": "uint256"
        },
        {
          "internalType": "address",
          "name": "",
          "type": "address"
        },
        {
          "internalType": "bool",
          "name": "",
          "type": "bool"
        }
      ],
      "stateMutability": "view",
      "type": "function",
      "constant": true
    },
    {
      "inputs": [
        {
          "internalType": "uint256",
          "name": "_id",
          "type": "uint256"
        }
      ],
      "name": "isLandRegistered",
      "outputs": [
        {
          "internalType": "bool",
          "name": "",
          "type": "bool"
        }
      ],
      "stateMutability": "view",
      "type": "function",
      "constant": true
    }
  ],
  "bytecode": "0x608060405234801561001057600080fd5b50610ffe806100206000396000f3fe608060405234801561001057600080fd5b50600436106100575760003560e01c806329507f731461005c5780632e8782bc1461007857806398f1c340146100a8578063e261f1e5146100c4578063f02dd53f146100f8575b600080fd5b61007660048036038101906100719190610801565b61012c565b005b610092600480360381019061008d9190610841565b6102f2565b60405161009f9190610889565b60405180910390f35b6100c260048036038101906100bd91906109ea565b61031e565b005b6100de60048036038101906100d99190610841565b6104bd565b6040516100ef959493929190610af6565b60405180910390f35b610112600480360381019061010d9190610841565b6105a8565b604051610123959493929190610af6565b60405180910390f35b600080600084815260200190815260200160002090508060030160149054906101000a900460ff16610193576040517f08c379a000000000000000000000000000000000000000000000000000000000815260040161018a90610b9c565b60405180910390fd5b3373ffffffffffffffffffffffffffffffffffffffff168160030160009054906101000a900473ffffffffffffffffffffffffffffffffffffffff1673ffffffffffffffffffffffffffffffffffffffff1614610225576040517f08c379a000000000000000000000000000000000000000000000000000000000815260040161021c90610c2e565b60405180910390fd5b60008160030160009054906101000a900473ffffffffffffffffffffffffffffffffffffffff169050828260030160006101000a81548173ffffffffffffffffffffffffffffffffffffffff021916908373ffffffffffffffffffffffffffffffffffffffff1602179055508273ffffffffffffffffffffffffffffffffffffffff168173ffffffffffffffffffffffffffffffffffffffff16857f16b85f49bf01212961345d3016c9a531894accf62eb7680f2045d79185cc0ec060405160405180910390a450505050565b600080600083815260200190815260200160002060030160149054906101000a900460ff169050919050565b60008084815260200190815260200160002060030160149054906101000a900460ff1615610381576040517f08c379a000000000000000000000000000000000000000000000000000000000815260040161037890610c9a565b60405180910390fd5b6040518060a001604052808481526020018381526020018281526020013373ffffffffffffffffffffffffffffffffffffffff168152602001600115158152506000808581526020019081526020016000206000820151816000015560208201518160010190816103f29190610ec6565b506040820151816002015560608201518160030160006101000a81548173ffffffffffffffffffffffffffffffffffffffff021916908373ffffffffffffffffffffffffffffffffffffffff16021790555060808201518160030160146101000a81548160ff0219169083151502179055509050503373ffffffffffffffffffffffffffffffffffffffff16837f53a976a9b9d61df3bb2e08e33448938aea67fb03572279eb18ed48cdd6fad04e84846040516104b0929190610f98565b60405180910390a3505050565b60006020528060005260406000206000915090508060000154908060010180546104e690610ce9565b80601f016020809104026020016040519081016040528092919081815260200182805461051290610ce9565b801561055f5780601f106105345761010080835404028352916020019161055f565b820191906000526020600020905b81548152906001019060200180831161054257829003601f168201915b5050505050908060020154908060030160009054906101000a900473ffffffffffffffffffffffffffffffffffffffff16908060030160149054906101000a900460ff16905085565b600060606000806000806000808881526020019081526020016000206040518060a0016040529081600082015481526020016001820180546105e990610ce9565b80601f016020809104026020016040519081016040528092919081815260200182805461061590610ce9565b80156106625780601f1061063757610100808354040283529160200191610662565b820191906000526020600020905b81548152906001019060200180831161064557829003601f168201915b50505050508152602001600282015481526020016003820160009054906101000a900473ffffffffffffffffffffffffffffffffffffffff1673ffffffffffffffffffffffffffffffffffffffff1673ffffffffffffffffffffffffffffffffffffffff1681526020016003820160149054906101000a900460ff1615151515815250509050806080015161072c576040517f08c379a000000000000000000000000000000000000000000000000000000000815260040161072390610b9c565b60405180910390fd5b80600001518160200151826040015183606001518460800151955095509550955095505091939590929450565b6000604051905090565b600080fd5b600080fd5b6000819050919050565b6107808161076d565b811461078b57600080fd5b50565b60008135905061079d81610777565b92915050565b600073ffffffffffffffffffffffffffffffffffffffff82169050919050565b60006107ce826107a3565b9050919050565b6107de816107c3565b81146107e957600080fd5b50565b6000813590506107fb816107d5565b92915050565b6000806040838503121561081857610817610763565b5b60006108268582860161078e565b9250506020610837858286016107ec565b9150509250929050565b60006020828403121561085757610856610763565b5b60006108658482850161078e565b91505092915050565b60008115159050919050565b6108838161086e565b82525050565b600060208201905061089e600083018461087a565b92915050565b600080fd5b600080fd5b6000601f19601f8301169050919050565b7f4e487b7100000000000000000000000000000000000000000000000000000000600052604160045260246000fd5b6108f7826108ae565b810181811067ffffffffffffffff82111715610916576109156108bf565b5b80604052505050565b6000610929610759565b905061093582826108ee565b919050565b600067ffffffffffffffff821115610955576109546108bf565b5b61095e826108ae565b9050602081019050919050565b82818337600083830152505050565b600061098d6109888461093a565b61091f565b9050828152602081018484840111156109a9576109a86108a9565b5b6109b484828561096b565b509392505050565b600082601f8301126109d1576109d06108a4565b5b81356109e184826020860161097a565b91505092915050565b600080600060608486031215610a0357610a02610763565b5b6000610a118682870161078e565b935050602084013567ffffffffffffffff811115610a3257610a31610768565b5b610a3e868287016109bc565b9250506040610a4f8682870161078e565b9150509250925092565b610a628161076d565b82525050565b600081519050919050565b600082825260208201905092915050565b60005b83811015610aa2578082015181840152602081019050610a87565b60008484015250505050565b6000610ab982610a68565b610ac38185610a73565b9350610ad3818560208601610a84565b610adc816108ae565b840191505092915050565b610af0816107c3565b82525050565b600060a082019050610b0b6000830188610a59565b8181036020830152610b1d8187610aae565b9050610b2c6040830186610a59565b610b396060830185610ae7565b610b46608083018461087a565b9695505050505050565b7f4c616e64206e6f74207265676973746572656400000000000000000000000000600082015250565b6000610b86601383610a73565b9150610b9182610b50565b602082019050919050565b60006020820190508181036000830152610bb581610b79565b9050919050565b7f4f6e6c7920746865206f776e65722063616e207472616e73666572206f776e6560008201527f7273686970000000000000000000000000000000000000000000000000000000602082015250565b6000610c18602583610a73565b9150610c2382610bbc565b604082019050919050565b60006020820190508181036000830152610c4781610c0b565b9050919050565b7f4c616e6420616c72656164792072656769737465726564000000000000000000600082015250565b6000610c84601783610a73565b9150610c8f82610c4e565b602082019050919050565b60006020820190508181036000830152610cb381610c77565b9050919050565b7f4e487b7100000000000000000000000000000000000000000000000000000000600052602260045260246000fd5b60006002820490506001821680610d0157607f821691505b602082108103610d1457610d13610cba565b5b50919050565b60008190508160005260206000209050919050565b60006020601f8301049050919050565b600082821b905092915050565b600060088302610d7c7fffffffffffffffffffffffffffffffffffffffffffffffffffffffffffffffff82610d3f565b610d868683610d3f565b95508019841693508086168417925050509392505050565b6000819050919050565b6000610dc3610dbe610db98461076d565b610d9e565b61076d565b9050919050565b6000819050919050565b610ddd83610da8565b610df1610de982610dca565b848454610d4c565b825550505050565b600090565b610e06610df9565b610e11818484610dd4565b505050565b5b81811015610e3557610e2a600082610dfe565b600181019050610e17565b5050565b601f821115610e7a57610e4b81610d1a565b610e5484610d2f565b81016020851015610e63578190505b610e77610e6f85610d2f565b830182610e16565b50505b505050565b600082821c905092915050565b6000610e9d60001984600802610e7f565b1980831691505092915050565b6000610eb68383610e8c565b9150826002028217905092915050565b610ecf82610a68565b67ffffffffffffffff811115610ee857610ee76108bf565b5b610ef28254610ce9565b610efd828285610e39565b600060209050601f831160018114610f305760008415610f1e578287015190505b610f288582610eaa565b865550610f90565b601f198416610f3e86610d1a565b60005b82811015610f6657848901518255600182019150602085019450602081019050610f41565b86831015610f835784890151610f7f601f891682610e8c565b8355505b6001600288020188555050505b505050505050565b60006040820190508181036000830152610fb28185610aae565b9050610fc16020830184610a59565b939250505056fea26469706673582212202aece2da21557bca7fa0b67eb6434f0271a99ad416f6d7c78683e576f780c6fc64736f6c63430008130033",
  "immutableReferences": {},
  "source": "// SPDX-License-Identifier: MIT\r\npragma solidity ^0.8.0;\r\n\r\ncontract LandRegistry {\r\n    // Structure to represent a land parcel\r\n    struct Land {\r\n        uint256 id;\r\n        string location;\r\n        uint256 area; // Area in square meters\r\n        address owner;\r\n        bool registered;\r\n    }\r\n\r\n    // Mapping from land ID to Land details\r\n    mapping(uint256 => Land) public lands;\r\n\r\n    // Event emitted when a new land is registered\r\n    event LandRegistered(uint256 indexed landId, string location, uint256 area, address indexed owner);\r\n\r\n    // Event emitted when land ownership is transferred\r\n    event OwnershipTransferred(uint256 indexed landId, address indexed oldOwner, address indexed newOwner);\r\n\r\n    // Register a new land parcel\r\n    function registerLand(uint256 _id, string memory _location, uint256 _area) public {\r\n        require(!lands[_id].registered, \"Land already registered\");\r\n\r\n        lands[_id] = Land({\r\n            id: _id,\r\n            location: _location,\r\n            area: _area,\r\n            owner: msg.sender,\r\n            registered: true\r\n        });\r\n\r\n        emit LandRegistered(_id, _location, _area, msg.sender);\r\n    }\r\n\r\n    // Transfer ownership of a land parcel\r\n    function transferOwnership(uint256 _id, address _newOwner) public {\r\n        Land storage land = lands[_id];\r\n        require(land.registered, \"Land not registered\");\r\n        require(land.owner == msg.sender, \"Only the owner can transfer ownership\");\r\n\r\n        address oldOwner = land.owner;\r\n        land.owner = _newOwner;\r\n\r\n        emit OwnershipTransferred(_id, oldOwner, _newOwner);\r\n    }\r\n\r\n    // Get land details\r\n    function getLand(uint256 _id) public view returns (uint256, string memory, uint256, address, bool) {\r\n        Land memory land = lands[_id];\r\n        require(land.registered, \"Land not registered\");\r\n\r\n        return (land.id, land.location, land.area, land.owner, land.registered);\r\n    }\r\n\r\n    // Check if land is registered\r\n    function isLandRegistered(uint256 _id) public view returns (bool) {\r\n        return lands[_id].registered;\r\n    }\r\n}\r\n",
  "sourcePath": "C:\\Users\\gokul\\eth-todo-list\\contracts\\landregistery.sol",
  "compiler": {
    "name": "solc",
    "version": "0.8.19+commit.7dd6d404.Emscripten.clang"
  },
  "schemaVersion": "3.4.16",
  "updatedAt": "2025-03-06T15:50:27.661Z",
  "networkType": "ethereum",
  "devdoc": {
    "kind": "dev",
    "methods": {},
    "version": 1
  },
  "userdoc": {
    "kind": "user",
    "methods": {},
    "version": 1
  }
}